:020000040800F2
:1000000070060020CD0100080B090008D90800087F
:1000100009090008D3020008750900080000000063
:100020000000000000000000000000000F090008B0
:10003000D5020008000000000D09000811090008A1
:10004000E7010008E7010008E7010008E7010008F0
:10005000E7010008E7010008E7010008E7010008E0
:10006000E7010008E7010008E7010008E7010008D0
:10007000E7010008E7010008E7010008E7010008C0
:10008000E7010008E7010008E7010008E7010008B0
:10009000E7010008E7010008E7010008E7010008A0
:1000A000E7010008E7010008E7010008E701000890
:1000B000E7010008E7010008E7010008E701000880
:1000C000E7010008E7010008E7010008E701000870
:1000D000E7010008E7010008E7010008E701000860
:1000E000E7010008E7010008E7010008E701000850
:1000F000E7010008E7010008E7010008E701000840
:10010000E7010008E7010008E7010008E70100082F
:10011000E7010008E7010008E7010008E70100081F
:10012000E7010008E7010008E7010008E70100080F
:1001300000F002F800F03AF80AA090E8000C8244BF
:100140008344AAF10107DA4501D100F02FF8AFF29C
:10015000090EBAE80F0013F0010F18BFFB1A43F0A5
:10016000010318475008000070080000103A24BF2F
:1001700078C878C1FAD8520724BF30C830C144BF0C
:1001800004680C607047000000230024002500264E
:10019000103A28BF78C1FBD8520728BF30C148BFEA
:1001A0000B6070471FB51FBD10B510BD00F058F8AB
:1001B0001146FFF7F7FF00F0EEFB00F076F803B40E
:1001C000FFF7F2FF03BC00F07DF80000094880470C
:1001D00009480047FEE7FEE7FEE7FEE7FEE7FEE729
:1001E000FEE7FEE7FEE7FEE704480549054A064B41
:1001F00070470000730900083101000870000020FA
:100200007006002070020020700200204FF00002F3
:1002100000B5134694469646203922BFA0E80C50FC
:10022000A0E80C50B1F12001BFF4F7AF090728BFD7
:10023000A0E80C5048BF0CC05DF804EB890028BF53
:1002400040F8042B08BF704748BF20F8022B11F07C
:10025000804F18BF00F8012B7047704770477047F8
:10026000754600F02BF8AE4605006946534620F06F
:100270000700854618B020B5FFF7B6FFBDE820405F
:100280004FF000064FF000074FF000084FF0000B52
:1002900021F00701AC46ACE8C009ACE8C009ACE805
:1002A000C009ACE8C0098D46704710B50446AFF3ED
:1002B00000802046BDE81040FFF781BF004870472E
:1002C0001000002001491820ABBEFEE72600020006
:1002D0007047FEE7704700000148806870470000E3
:1002E0000000002002488168027811448160704754
:1002F00000000020074810B5016841F010010160BE
:10030000032000F067F80F2000F006F800F024F852
:10031000002010BD0020024070B50D4D04464FF482
:100320007A712878B1FBF0F00A490968B1FBF0F066
:1003300000F0BEFA48B9102C07D200222146501E08
:1003400000F028F800206C6070BD012070BD000036
:10035000000000200C0000200C4808B5816941F025
:1003600001018161816901F001010091C16941F0E0
:100370008051C161C06900F080500090044841681C
:1003800021F0E06141F00071416008BD00100240C1
:1003900000000140F0B40E4B1B680C46C3F302236F
:1003A000C3F10705042D00D90425191D072901D221
:1003B000002300E0DB1E012606FA05F1491E21405C
:1003C00099409E40761E16403143F0BC00F0D3BAEF
:1003D0000CED00E0064900F0070208684FF6FF0345
:1003E000184040EA0220034A1043086070470000AA
:1003F0000CED00E00000FA052DE9F0470F4605007E
:1004000061D0434E306800F00700B84209D230682E
:1004100020F0070038433060306800F00700B84231
:1004200051D128683B4C810712D5400703D560683D
:1004300040F4E06060602878000703D5606840F40D
:10044000605060606068A96820F0F0000843606058
:100450002878C00728D06868012810D021680228B1
:1004600010D0890700292EDA616821F003010143C9
:100470006160FFF731FF804641F288390DE0216865
:100480008903EFE78901EDE7FFF726FFA0EB0801FD
:10049000494502D90320BDE8F0876068696800F02B
:1004A0000C00B0EB810FEFD1306800F00700B842CC
:1004B0000BD9306820F0070038433060306800F016
:1004C0000700B84201D00120E5E72878400705D5AC
:1004D0006068E96820F4E0600843606028780007FD
:1004E00006D56068296920F4605040EAC100606068
:1004F00000F018F86168084AC1F30311515CC84064
:100500000649086006480068FFF706FF0020C2E7BA
:100510000020024000100240A40900080C00002046
:100520000400002012A185B00FC98DE80F0014A0AF
:10053000144A006804905168134801F00C03042B1E
:1005400010D0082B0ED1C1F38343C9031DF803005B
:100550000AD5516804AAC1F34041515C0A4A50438C
:10056000B0FBF1F005B0704708494843FAE70000D6
:1005700002030405060708090A0B0C0D0E0F1010E4
:10058000010200000010024000127A0000093D0044
:100590002DE9F84F040070D02078C04DC00749D035
:1005A0006868C0F38100012807D06868C0F3810043
:1005B000022809D16868C00306D52868800339D5A8
:1005C00060680028E7D035E06068B0F5803F0BD068
:1005D00010B1B0F5A02F11D0286820F48030286029
:1005E000286820F4802002E0286840F480302860E9
:1005F000606890B1FFF770FE06460AE0286840F494
:1006000080202860F0E700BFFFF766FE801B6428AB
:1006100073D828688003F7D50CE0FFF75DFE064627
:1006200005E000BFFFF758FE801B6428F0D828685B
:100630008003F7D420789A4E80074FF001094FF0DD
:10064000000839D5686810F00C0F07D06868C0F34F
:100650008100022809D16868C00306D42868800791
:1006600014D52069012808D110E02069B0B1C6F87E
:100670000090FFF731FE074605E00AE1FFF72CFE88
:10068000C01B0228C4D828688007F7D5286861698C
:1006900020F0F80040EAC10028600DE0C6F80080B4
:1006A000FFF71AFE074604E0FFF716FEC01B0228FC
:1006B00023D828688007F7D4207800072CD57948FC
:1006C000A169D9B1C0F80090FFF706FE074604E023
:1006D000FFF702FEC01B02280FD8686A8007F7D513
:1006E00071484FF4FA510068B0FBF1F0009000BF80
:1006F0000098411E0091FAD20EE080E0C0F8008020
:10070000FFF7EAFD074604E0FFF7E6FDC01B0228FD
:1007100075D8686A8007F7D42078400760D5E86903
:100720000027C00008D4E86940F08050E861E8691B
:10073000012700F0805000905C480168C90513D47F
:100740000168834641F480710160FFF7C5FD824670
:1007500006E000BFFFF7C0FDA0EB0A0064284ED8FA
:10076000DBF80000C005F5D5E06801280AD008B123
:10077000052813D0286A20F001002862286A20F09A
:10078000040002E0286A40F001002862E06841F2BB
:10079000883B98B1FFF7A0FD82460BE0286A40F045
:1007A00004002862EEE700BFFFF796FDA0EB0A0108
:1007B00059455AD8286A8007F6D50CE0FFF78CFD1A
:1007C000824605E0FFF788FDA0EB0A0159454CD8A9
:1007D000286A8007F6D41FB1E86920F08050E861EC
:1007E000E06988B36968C1F38101022944D0022815
:1007F000C6F8608004D0FFF76FFD044638E034E0AF
:10080000FFF76AFD074604E0FFF766FDC01B0228FC
:100810002BD828688001F7D4206AB0F5803F05D135
:100820006868A16820F4003008436860D4E90801D2
:100830000843696821F4741108436860C6F8609041
:10084000FFF74AFD044606E025E000BFFFF744FD40
:10085000001B022809D828688001F7D51BE000BFDB
:10086000FFF73AFD001B022802D90320BDE8F88FEC
:1008700028688001F4D40EE00128F7D06868226A65
:1008800000F48031914204D1616A00F47010884212
:1008900001D00120EAE70020E8E700000010024054
:1008A00000004242800442420C00002000700040E0
:1008B00010B5401EB0F1807F01D3012010BD4FF074
:1008C000E02460610F21601700F055F80020A0615E
:1008D00007202061002010BDFEE70000094808B590
:1008E000816941F020018161816901F0200100915D
:1008F000816941F004018161806900F00400009089
:1009000008BD000000100240FEE7FEE77047704798
:10091000FFF7E8BC30B58FB028216846FFF776FCBA
:1009200014210AA8FFF772FC01210804CDE9001088
:100930000024029402250491CDE907504FF4E01001
:1009400009906846FFF724FE08B172B6FEE70F2053
:10095000CDE90A054FF48060CDE90C4002210AA8D8
:100960000E94FFF749FD002801D072B6FEE70FB0E4
:1009700030BD7047FEE70907090E002804DB00F1CF
:10098000E02080F80014704700F00F0000F1E02034
:1009900080F8141D7047FFF7ADFCFFF7BBFFFFF7B2
:1009A0009DFFFEE7000000000000000001020304BC
:1009B00006070809D4090008000000201000000004
:1009C0006C010008E4090008100000206006000027
:1009D0008801000801000000100000000000000075
:0409E0000024F400FB
:0400000508000131BD
:00000001FF
